{
  "_format": "hh-sol-artifact-1",
  "contractName": "Marketplace",
  "sourceName": "contracts/Marketplace.sol",
  "abi": [
    {
      "inputs": [],
      "stateMutability": "nonpayable",
      "type": "constructor"
    },
    {
      "inputs": [
        {
          "internalType": "address",
          "name": "nftAddress",
          "type": "address"
        },
        {
          "internalType": "uint256",
          "name": "tokenId",
          "type": "uint256"
        }
      ],
      "name": "AlreadyListed",
      "type": "error"
    },
    {
      "inputs": [],
      "name": "NoProceeds",
      "type": "error"
    },
    {
      "inputs": [],
      "name": "NotApprovedForMarketplace",
      "type": "error"
    },
    {
      "inputs": [
        {
          "internalType": "address",
          "name": "nftAddress",
          "type": "address"
        },
        {
          "internalType": "uint256",
          "name": "tokenId",
          "type": "uint256"
        }
      ],
      "name": "NotListed",
      "type": "error"
    },
    {
      "inputs": [],
      "name": "NotOwner",
      "type": "error"
    },
    {
      "inputs": [],
      "name": "PriceMustBeAboveZero",
      "type": "error"
    },
    {
      "inputs": [
        {
          "internalType": "address",
          "name": "nftAddress",
          "type": "address"
        },
        {
          "internalType": "uint256",
          "name": "tokenId",
          "type": "uint256"
        },
        {
          "internalType": "uint256",
          "name": "price",
          "type": "uint256"
        }
      ],
      "name": "PriceNotMet",
      "type": "error"
    },
    {
      "anonymous": false,
      "inputs": [
        {
          "indexed": true,
          "internalType": "address",
          "name": "buyer",
          "type": "address"
        },
        {
          "indexed": true,
          "internalType": "address",
          "name": "nftAddress",
          "type": "address"
        },
        {
          "indexed": true,
          "internalType": "uint256",
          "name": "tokenId",
          "type": "uint256"
        },
        {
          "indexed": false,
          "internalType": "uint256",
          "name": "price",
          "type": "uint256"
        }
      ],
      "name": "ItemBought",
      "type": "event"
    },
    {
      "anonymous": false,
      "inputs": [
        {
          "indexed": true,
          "internalType": "address",
          "name": "seller",
          "type": "address"
        },
        {
          "indexed": true,
          "internalType": "address",
          "name": "nftAddress",
          "type": "address"
        },
        {
          "indexed": true,
          "internalType": "uint256",
          "name": "tokenId",
          "type": "uint256"
        }
      ],
      "name": "ItemCanceled",
      "type": "event"
    },
    {
      "anonymous": false,
      "inputs": [
        {
          "indexed": true,
          "internalType": "address",
          "name": "seller",
          "type": "address"
        },
        {
          "indexed": true,
          "internalType": "address",
          "name": "nftAddress",
          "type": "address"
        },
        {
          "indexed": true,
          "internalType": "uint256",
          "name": "tokenId",
          "type": "uint256"
        },
        {
          "indexed": false,
          "internalType": "uint256",
          "name": "price",
          "type": "uint256"
        }
      ],
      "name": "ItemListed",
      "type": "event"
    },
    {
      "anonymous": false,
      "inputs": [
        {
          "indexed": true,
          "internalType": "address",
          "name": "owner",
          "type": "address"
        },
        {
          "indexed": true,
          "internalType": "address",
          "name": "user",
          "type": "address"
        },
        {
          "indexed": true,
          "internalType": "address",
          "name": "nftContract",
          "type": "address"
        },
        {
          "indexed": false,
          "internalType": "uint256",
          "name": "tokenId",
          "type": "uint256"
        },
        {
          "indexed": false,
          "internalType": "uint256",
          "name": "pricePerDay",
          "type": "uint256"
        },
        {
          "indexed": false,
          "internalType": "uint256",
          "name": "startDateUNIX",
          "type": "uint256"
        },
        {
          "indexed": false,
          "internalType": "uint256",
          "name": "endDateUNIX",
          "type": "uint256"
        },
        {
          "indexed": false,
          "internalType": "uint256",
          "name": "expires",
          "type": "uint256"
        }
      ],
      "name": "NFTListed",
      "type": "event"
    },
    {
      "anonymous": false,
      "inputs": [
        {
          "indexed": true,
          "internalType": "address",
          "name": "owner",
          "type": "address"
        },
        {
          "indexed": true,
          "internalType": "address",
          "name": "user",
          "type": "address"
        },
        {
          "indexed": true,
          "internalType": "address",
          "name": "nftContract",
          "type": "address"
        },
        {
          "indexed": false,
          "internalType": "uint256",
          "name": "tokenId",
          "type": "uint256"
        },
        {
          "indexed": false,
          "internalType": "uint256",
          "name": "startDateUNIX",
          "type": "uint256"
        },
        {
          "indexed": false,
          "internalType": "uint256",
          "name": "endDateUNIX",
          "type": "uint256"
        },
        {
          "indexed": false,
          "internalType": "uint64",
          "name": "expires",
          "type": "uint64"
        },
        {
          "indexed": false,
          "internalType": "uint256",
          "name": "rentalFee",
          "type": "uint256"
        }
      ],
      "name": "NFTRented",
      "type": "event"
    },
    {
      "anonymous": false,
      "inputs": [
        {
          "indexed": true,
          "internalType": "address",
          "name": "unlistSender",
          "type": "address"
        },
        {
          "indexed": true,
          "internalType": "address",
          "name": "nftContract",
          "type": "address"
        },
        {
          "indexed": true,
          "internalType": "uint256",
          "name": "tokenId",
          "type": "uint256"
        },
        {
          "indexed": false,
          "internalType": "uint256",
          "name": "refund",
          "type": "uint256"
        }
      ],
      "name": "NFTUnlisted",
      "type": "event"
    },
    {
      "inputs": [
        {
          "internalType": "address",
          "name": "nftAddress",
          "type": "address"
        },
        {
          "internalType": "uint256",
          "name": "tokenId",
          "type": "uint256"
        }
      ],
      "name": "buyItem",
      "outputs": [],
      "stateMutability": "payable",
      "type": "function"
    },
    {
      "inputs": [
        {
          "internalType": "address",
          "name": "nftAddress",
          "type": "address"
        },
        {
          "internalType": "uint256",
          "name": "tokenId",
          "type": "uint256"
        }
      ],
      "name": "cancelListing",
      "outputs": [],
      "stateMutability": "nonpayable",
      "type": "function"
    },
    {
      "inputs": [],
      "name": "getAllListings",
      "outputs": [
        {
          "components": [
            {
              "internalType": "address",
              "name": "owner",
              "type": "address"
            },
            {
              "internalType": "address",
              "name": "user",
              "type": "address"
            },
            {
              "internalType": "address",
              "name": "nftContract",
              "type": "address"
            },
            {
              "internalType": "uint256",
              "name": "tokenId",
              "type": "uint256"
            },
            {
              "internalType": "uint256",
              "name": "pricePerDay",
              "type": "uint256"
            },
            {
              "internalType": "uint256",
              "name": "startDateUNIX",
              "type": "uint256"
            },
            {
              "internalType": "uint256",
              "name": "endDateUNIX",
              "type": "uint256"
            },
            {
              "internalType": "uint256",
              "name": "expires",
              "type": "uint256"
            }
          ],
          "internalType": "struct Marketplace.Listing_rent[]",
          "name": "",
          "type": "tuple[]"
        }
      ],
      "stateMutability": "view",
      "type": "function"
    },
    {
      "inputs": [
        {
          "internalType": "address",
          "name": "nftAddress",
          "type": "address"
        },
        {
          "internalType": "uint256",
          "name": "tokenId",
          "type": "uint256"
        }
      ],
      "name": "getListing",
      "outputs": [
        {
          "components": [
            {
              "internalType": "uint256",
              "name": "price",
              "type": "uint256"
            },
            {
              "internalType": "address",
              "name": "seller",
              "type": "address"
            }
          ],
          "internalType": "struct Marketplace.Listing_sell",
          "name": "",
          "type": "tuple"
        }
      ],
      "stateMutability": "view",
      "type": "function"
    },
    {
      "inputs": [],
      "name": "getListingFee",
      "outputs": [
        {
          "internalType": "uint256",
          "name": "",
          "type": "uint256"
        }
      ],
      "stateMutability": "view",
      "type": "function"
    },
    {
      "inputs": [
        {
          "internalType": "address",
          "name": "seller",
          "type": "address"
        }
      ],
      "name": "getProceeds",
      "outputs": [
        {
          "internalType": "uint256",
          "name": "",
          "type": "uint256"
        }
      ],
      "stateMutability": "view",
      "type": "function"
    },
    {
      "inputs": [
        {
          "internalType": "address",
          "name": "nftContract",
          "type": "address"
        }
      ],
      "name": "isRentableNFT",
      "outputs": [
        {
          "internalType": "bool",
          "name": "",
          "type": "bool"
        }
      ],
      "stateMutability": "view",
      "type": "function"
    },
    {
      "inputs": [
        {
          "internalType": "address",
          "name": "nftAddress",
          "type": "address"
        },
        {
          "internalType": "uint256",
          "name": "tokenId",
          "type": "uint256"
        },
        {
          "internalType": "uint256",
          "name": "price",
          "type": "uint256"
        }
      ],
      "name": "listItem",
      "outputs": [],
      "stateMutability": "nonpayable",
      "type": "function"
    },
    {
      "inputs": [
        {
          "internalType": "address",
          "name": "nftContract",
          "type": "address"
        },
        {
          "internalType": "uint256",
          "name": "tokenId",
          "type": "uint256"
        },
        {
          "internalType": "uint256",
          "name": "pricePerDay",
          "type": "uint256"
        },
        {
          "internalType": "uint256",
          "name": "startDateUNIX",
          "type": "uint256"
        },
        {
          "internalType": "uint256",
          "name": "endDateUNIX",
          "type": "uint256"
        }
      ],
      "name": "listNFT",
      "outputs": [],
      "stateMutability": "payable",
      "type": "function"
    },
    {
      "inputs": [
        {
          "internalType": "address",
          "name": "nftContract",
          "type": "address"
        },
        {
          "internalType": "uint256",
          "name": "tokenId",
          "type": "uint256"
        },
        {
          "internalType": "uint64",
          "name": "expires",
          "type": "uint64"
        }
      ],
      "name": "rentNFT",
      "outputs": [],
      "stateMutability": "payable",
      "type": "function"
    },
    {
      "inputs": [
        {
          "internalType": "address",
          "name": "nftContract",
          "type": "address"
        },
        {
          "internalType": "uint256",
          "name": "tokenId",
          "type": "uint256"
        }
      ],
      "name": "unlistNFT",
      "outputs": [],
      "stateMutability": "payable",
      "type": "function"
    },
    {
      "inputs": [
        {
          "internalType": "address",
          "name": "nftAddress",
          "type": "address"
        },
        {
          "internalType": "uint256",
          "name": "tokenId",
          "type": "uint256"
        },
        {
          "internalType": "uint256",
          "name": "newPrice",
          "type": "uint256"
        }
      ],
      "name": "updateListing",
      "outputs": [],
      "stateMutability": "nonpayable",
      "type": "function"
    },
    {
      "inputs": [],
      "name": "withdrawProceeds",
      "outputs": [],
      "stateMutability": "nonpayable",
      "type": "function"
    }
  ],
  "bytecode": "0x608060405266038d7ea4c6800060035534801561001b57600080fd5b50600160008190555033600260006101000a81548173ffffffffffffffffffffffffffffffffffffffff021916908373ffffffffffffffffffffffffffffffffffffffff160217905550613f0f806100746000396000f3fe6080604052600436106100c25760003560e01c80639a34f0031161007f578063b2ddee0611610059578063b2ddee061461021c578063b8fe6abe14610245578063e9a6f4f614610270578063f772adf1146102ad576100c2565b80639a34f003146101b95780639f37092a146101d5578063ae73ccec146101f1576100c2565b806330cfeda9146100c75780637e943afd146101045780637fc27efd1461012057806388700d1c1461013c57806389bfd38f146101795780639038e693146101a2575b600080fd5b3480156100d357600080fd5b506100ee60048036038101906100e99190612dac565b6102d6565b6040516100fb9190612df2565b60405180910390f35b61011e60048036038101906101199190612e39565b61031f565b005b61013a60048036038101906101359190612eb4565b6109f5565b005b34801561014857600080fd5b50610163600480360381019061015e9190612eb4565b610fa8565b6040516101709190612f41565b60405180910390f35b34801561018557600080fd5b506101a0600480360381019061019b9190612f5c565b611073565b005b3480156101ae57600080fd5b506101b76114cb565b005b6101d360048036038101906101ce9190612fef565b61163e565b005b6101ef60048036038101906101ea9190612eb4565b611a71565b005b3480156101fd57600080fd5b50610206611e5e565b6040516102139190613194565b60405180910390f35b34801561022857600080fd5b50610243600480360381019061023e9190612eb4565b61215b565b005b34801561025157600080fd5b5061025a61243b565b6040516102679190612df2565b60405180910390f35b34801561027c57600080fd5b5061029760048036038101906102929190612dac565b612445565b6040516102a491906131d1565b60405180910390f35b3480156102b957600080fd5b506102d460048036038101906102cf9190612f5c565b6125ae565b005b6000600560008373ffffffffffffffffffffffffffffffffffffffff1673ffffffffffffffffffffffffffffffffffffffff168152602001908152602001600020549050919050565b6103276128ba565b61033085612445565b61036f576040517f08c379a000000000000000000000000000000000000000000000000000000000815260040161036690613249565b60405180910390fd5b3373ffffffffffffffffffffffffffffffffffffffff168573ffffffffffffffffffffffffffffffffffffffff16636352211e866040518263ffffffff1660e01b81526004016103bf9190612df2565b602060405180830381865afa1580156103dc573d6000803e3d6000fd5b505050506040513d601f19601f82011682018060405250810190610400919061327e565b73ffffffffffffffffffffffffffffffffffffffff1614610456576040517f08c379a000000000000000000000000000000000000000000000000000000000815260040161044d906132f7565b60405180910390fd5b600354341461049a576040517f08c379a000000000000000000000000000000000000000000000000000000000815260040161049190613363565b60405180910390fd5b600083116104dd576040517f08c379a00000000000000000000000000000000000000000000000000000000081526004016104d4906133f5565b60405180910390fd5b42821015610520576040517f08c379a000000000000000000000000000000000000000000000000000000000815260040161051790613461565b60405180910390fd5b81811015610563576040517f08c379a000000000000000000000000000000000000000000000000000000000815260040161055a906134f3565b60405180910390fd5b600073ffffffffffffffffffffffffffffffffffffffff16600660008773ffffffffffffffffffffffffffffffffffffffff1673ffffffffffffffffffffffffffffffffffffffff168152602001908152602001600020600086815260200190815260200160002060020160009054906101000a900473ffffffffffffffffffffffffffffffffffffffff1673ffffffffffffffffffffffffffffffffffffffff1614610645576040517f08c379a000000000000000000000000000000000000000000000000000000000815260040161063c9061355f565b60405180910390fd5b600260009054906101000a900473ffffffffffffffffffffffffffffffffffffffff1673ffffffffffffffffffffffffffffffffffffffff166108fc6003549081150290604051600060405180830381858888f193505050501580156106af573d6000803e3d6000fd5b506040518061010001604052803373ffffffffffffffffffffffffffffffffffffffff168152602001600073ffffffffffffffffffffffffffffffffffffffff1681526020018673ffffffffffffffffffffffffffffffffffffffff1681526020018581526020018481526020018381526020018281526020016000815250600660008773ffffffffffffffffffffffffffffffffffffffff1673ffffffffffffffffffffffffffffffffffffffff168152602001908152602001600020600086815260200190815260200160002060008201518160000160006101000a81548173ffffffffffffffffffffffffffffffffffffffff021916908373ffffffffffffffffffffffffffffffffffffffff16021790555060208201518160010160006101000a81548173ffffffffffffffffffffffffffffffffffffffff021916908373ffffffffffffffffffffffffffffffffffffffff16021790555060408201518160020160006101000a81548173ffffffffffffffffffffffffffffffffffffffff021916908373ffffffffffffffffffffffffffffffffffffffff160217905550606082015181600301556080820151816004015560a0820151816005015560c0820151816006015560e082015181600701559050506108926001612909565b6108da600760008773ffffffffffffffffffffffffffffffffffffffff1673ffffffffffffffffffffffffffffffffffffffff1681526020019081526020016000208561291f565b506108e6600886612939565b508473ffffffffffffffffffffffffffffffffffffffff16600073ffffffffffffffffffffffffffffffffffffffff168673ffffffffffffffffffffffffffffffffffffffff16636352211e876040518263ffffffff1660e01b815260040161094f9190612df2565b602060405180830381865afa15801561096c573d6000803e3d6000fd5b505050506040513d601f19601f82011682018060405250810190610990919061327e565b73ffffffffffffffffffffffffffffffffffffffff167f51961ff716bd7d3e30c6869dae4d4c0f9e0c6abbae1aa5887f3f6fa8d68f34df8787878760006040516109de9594939291906135c4565b60405180910390a46109ee612969565b5050505050565b6109fd6128ba565b6000600660008473ffffffffffffffffffffffffffffffffffffffff1673ffffffffffffffffffffffffffffffffffffffff16815260200190815260200160002060008381526020019081526020016000209050600073ffffffffffffffffffffffffffffffffffffffff168160000160009054906101000a900473ffffffffffffffffffffffffffffffffffffffff1673ffffffffffffffffffffffffffffffffffffffff1603610ae4576040517f08c379a0000000000000000000000000000000000000000000000000000000008152600401610adb90613663565b60405180910390fd5b3373ffffffffffffffffffffffffffffffffffffffff168160000160009054906101000a900473ffffffffffffffffffffffffffffffffffffffff1673ffffffffffffffffffffffffffffffffffffffff161480610b8f57503373ffffffffffffffffffffffffffffffffffffffff16600260009054906101000a900473ffffffffffffffffffffffffffffffffffffffff1673ffffffffffffffffffffffffffffffffffffffff16145b610bce576040517f08c379a0000000000000000000000000000000000000000000000000000000008152600401610bc5906136cf565b60405180910390fd5b60008073ffffffffffffffffffffffffffffffffffffffff168260010160009054906101000a900473ffffffffffffffffffffffffffffffffffffffff1673ffffffffffffffffffffffffffffffffffffffff1614610d2657816004015460016018603c80428760070154610c43919061371e565b610c4d9190613781565b610c579190613781565b610c619190613781565b610c6b91906137b2565b610c7591906137e6565b905080341015610cba576040517f08c379a0000000000000000000000000000000000000000000000000000000008152600401610cb190613874565b60405180910390fd5b8160010160009054906101000a900473ffffffffffffffffffffffffffffffffffffffff1673ffffffffffffffffffffffffffffffffffffffff166108fc829081150290604051600060405180830381858888f19350505050158015610d24573d6000803e3d6000fd5b505b8373ffffffffffffffffffffffffffffffffffffffff1663e030565e846000806040518463ffffffff1660e01b8152600401610d64939291906138d4565b600060405180830381600087803b158015610d7e57600080fd5b505af1158015610d92573d6000803e3d6000fd5b50505050610dde600760008673ffffffffffffffffffffffffffffffffffffffff1673ffffffffffffffffffffffffffffffffffffffff16815260200190815260200160002084612973565b50600660008573ffffffffffffffffffffffffffffffffffffffff1673ffffffffffffffffffffffffffffffffffffffff1681526020019081526020016000206000848152602001908152602001600020600080820160006101000a81549073ffffffffffffffffffffffffffffffffffffffff02191690556001820160006101000a81549073ffffffffffffffffffffffffffffffffffffffff02191690556002820160006101000a81549073ffffffffffffffffffffffffffffffffffffffff02191690556003820160009055600482016000905560058201600090556006820160009055600782016000905550506000610f18600760008773ffffffffffffffffffffffffffffffffffffffff1673ffffffffffffffffffffffffffffffffffffffff16815260200190815260200160002061298d565b03610f2a57610f286008856129a2565b505b610f3460016129d2565b828473ffffffffffffffffffffffffffffffffffffffff163373ffffffffffffffffffffffffffffffffffffffff167f6d7362d1e96e1739a576062b58d2055c5f8f9b50bf703c53b1c26cd3a82548c684604051610f929190612df2565b60405180910390a45050610fa4612969565b5050565b610fb0612c92565b600460008473ffffffffffffffffffffffffffffffffffffffff1673ffffffffffffffffffffffffffffffffffffffff1681526020019081526020016000206000838152602001908152602001600020604051806040016040529081600082015481526020016001820160009054906101000a900473ffffffffffffffffffffffffffffffffffffffff1673ffffffffffffffffffffffffffffffffffffffff1673ffffffffffffffffffffffffffffffffffffffff1681525050905092915050565b82826000600460008473ffffffffffffffffffffffffffffffffffffffff1673ffffffffffffffffffffffffffffffffffffffff1681526020019081526020016000206000838152602001908152602001600020604051806040016040529081600082015481526020016001820160009054906101000a900473ffffffffffffffffffffffffffffffffffffffff1673ffffffffffffffffffffffffffffffffffffffff1673ffffffffffffffffffffffffffffffffffffffff168152505090506000816000015111156111805782826040517f4a5568d500000000000000000000000000000000000000000000000000000000815260040161117792919061390b565b60405180910390fd5b858533600083905060008173ffffffffffffffffffffffffffffffffffffffff16636352211e856040518263ffffffff1660e01b81526004016111c39190612df2565b602060405180830381865afa1580156111e0573d6000803e3d6000fd5b505050506040513d601f19601f82011682018060405250810190611204919061327e565b90508073ffffffffffffffffffffffffffffffffffffffff168373ffffffffffffffffffffffffffffffffffffffff161461126b576040517f30cd747100000000000000000000000000000000000000000000000000000000815260040160405180910390fd5b600089116112a5576040517fe1abbfc500000000000000000000000000000000000000000000000000000000815260040160405180910390fd5b60008b90503073ffffffffffffffffffffffffffffffffffffffff168173ffffffffffffffffffffffffffffffffffffffff1663081812fc8d6040518263ffffffff1660e01b81526004016112fa9190612df2565b602060405180830381865afa158015611317573d6000803e3d6000fd5b505050506040513d601f19601f8201168201806040525081019061133b919061327e565b73ffffffffffffffffffffffffffffffffffffffff1614611388576040517f4be3a2c500000000000000000000000000000000000000000000000000000000815260040160405180910390fd5b60405180604001604052808b81526020013373ffffffffffffffffffffffffffffffffffffffff16815250600460008e73ffffffffffffffffffffffffffffffffffffffff1673ffffffffffffffffffffffffffffffffffffffff16815260200190815260200160002060008d81526020019081526020016000206000820151816000015560208201518160010160006101000a81548173ffffffffffffffffffffffffffffffffffffffff021916908373ffffffffffffffffffffffffffffffffffffffff1602179055509050508a8c73ffffffffffffffffffffffffffffffffffffffff163373ffffffffffffffffffffffffffffffffffffffff167fd547e933094f12a9159076970143ebe73234e64480317844b0dcb36117116de48d6040516114b59190612df2565b60405180910390a4505050505050505050505050565b6000600560003373ffffffffffffffffffffffffffffffffffffffff1673ffffffffffffffffffffffffffffffffffffffff16815260200190815260200160002054905060008111611549576040517fc4d8fa8700000000000000000000000000000000000000000000000000000000815260040160405180910390fd5b6000600560003373ffffffffffffffffffffffffffffffffffffffff1673ffffffffffffffffffffffffffffffffffffffff1681526020019081526020016000208190555060003373ffffffffffffffffffffffffffffffffffffffff16826040516115b490613965565b60006040518083038185875af1925050503d80600081146115f1576040519150601f19603f3d011682016040523d82523d6000602084013e6115f6565b606091505b505090508061163a576040517f08c379a0000000000000000000000000000000000000000000000000000000008152600401611631906139c6565b60405180910390fd5b5050565b6116466128ba565b6000600660008573ffffffffffffffffffffffffffffffffffffffff1673ffffffffffffffffffffffffffffffffffffffff16815260200190815260200160002060008481526020019081526020016000209050600073ffffffffffffffffffffffffffffffffffffffff168160010160009054906101000a900473ffffffffffffffffffffffffffffffffffffffff1673ffffffffffffffffffffffffffffffffffffffff1614806116fc5750806007015442115b61173b576040517f08c379a000000000000000000000000000000000000000000000000000000000815260040161173290613a32565b60405180910390fd5b80600601548267ffffffffffffffff16111561178c576040517f08c379a000000000000000000000000000000000000000000000000000000000815260040161178390613ac4565b60405180910390fd5b600060016018603c80428767ffffffffffffffff166117ab919061371e565b6117b59190613781565b6117bf9190613781565b6117c99190613781565b6117d391906137b2565b905060008183600401546117e791906137e6565b90508034101561182c576040517f08c379a000000000000000000000000000000000000000000000000000000000815260040161182390613b56565b60405180910390fd5b8260000160009054906101000a900473ffffffffffffffffffffffffffffffffffffffff1673ffffffffffffffffffffffffffffffffffffffff166108fc829081150290604051600060405180830381858888f19350505050158015611896573d6000803e3d6000fd5b508573ffffffffffffffffffffffffffffffffffffffff1663e030565e8633876040518463ffffffff1660e01b81526004016118d493929190613b85565b600060405180830381600087803b1580156118ee57600080fd5b505af1158015611902573d6000803e3d6000fd5b50505050338360010160006101000a81548173ffffffffffffffffffffffffffffffffffffffff021916908373ffffffffffffffffffffffffffffffffffffffff1602179055508367ffffffffffffffff1683600701819055508573ffffffffffffffffffffffffffffffffffffffff163373ffffffffffffffffffffffffffffffffffffffff168773ffffffffffffffffffffffffffffffffffffffff16636352211e886040518263ffffffff1660e01b81526004016119c39190612df2565b602060405180830381865afa1580156119e0573d6000803e3d6000fd5b505050506040513d601f19601f82011682018060405250810190611a04919061327e565b73ffffffffffffffffffffffffffffffffffffffff167f9e281a126f51088cc2a404608130a64cb50df5e046d30d0540344ef4f1b6ec2a88876005015488600601548a88604051611a59959493929190613bbc565b60405180910390a4505050611a6c612969565b505050565b81816000600460008473ffffffffffffffffffffffffffffffffffffffff1673ffffffffffffffffffffffffffffffffffffffff1681526020019081526020016000206000838152602001908152602001600020604051806040016040529081600082015481526020016001820160009054906101000a900473ffffffffffffffffffffffffffffffffffffffff1673ffffffffffffffffffffffffffffffffffffffff1673ffffffffffffffffffffffffffffffffffffffff168152505090506000816000015111611b7d5782826040517f6831488c000000000000000000000000000000000000000000000000000000008152600401611b7492919061390b565b60405180910390fd5b611b856128ba565b6000600460008773ffffffffffffffffffffffffffffffffffffffff1673ffffffffffffffffffffffffffffffffffffffff1681526020019081526020016000206000868152602001908152602001600020604051806040016040529081600082015481526020016001820160009054906101000a900473ffffffffffffffffffffffffffffffffffffffff1673ffffffffffffffffffffffffffffffffffffffff1673ffffffffffffffffffffffffffffffffffffffff168152505090508060000151341015611c9557858582600001516040517f7c934565000000000000000000000000000000000000000000000000000000008152600401611c8c93929190613c0f565b60405180910390fd5b3460056000836020015173ffffffffffffffffffffffffffffffffffffffff1673ffffffffffffffffffffffffffffffffffffffff1681526020019081526020016000206000828254611ce891906137b2565b92505081905550600460008773ffffffffffffffffffffffffffffffffffffffff1673ffffffffffffffffffffffffffffffffffffffff16815260200190815260200160002060008681526020019081526020016000206000808201600090556001820160006101000a81549073ffffffffffffffffffffffffffffffffffffffff021916905550508573ffffffffffffffffffffffffffffffffffffffff166342842e0e826020015133886040518463ffffffff1660e01b8152600401611db293929190613c46565b600060405180830381600087803b158015611dcc57600080fd5b505af1158015611de0573d6000803e3d6000fd5b50505050848673ffffffffffffffffffffffffffffffffffffffff163373ffffffffffffffffffffffffffffffffffffffff167f263223b1dd81e51054a4e6f791d45a4a1ddb4aadcd93a2dfd892615c3fdac1878460000151604051611e469190612df2565b60405180910390a450611e57612969565b5050505050565b60606000611e6c6001612a2e565b67ffffffffffffffff811115611e8557611e84613c7d565b5b604051908082528060200260200182016040528015611ebe57816020015b611eab612cc2565b815260200190600190039081611ea35790505b509050600080611ece6008612a3c565b905060005b8151811015612151576000828281518110611ef157611ef0613cac565b5b602002602001015190506000611f44600760008473ffffffffffffffffffffffffffffffffffffffff1673ffffffffffffffffffffffffffffffffffffffff168152602001908152602001600020612a5d565b905060005b815181101561213b57600660008473ffffffffffffffffffffffffffffffffffffffff1673ffffffffffffffffffffffffffffffffffffffff1681526020019081526020016000206000838381518110611fa657611fa5613cac565b5b60200260200101518152602001908152602001600020604051806101000160405290816000820160009054906101000a900473ffffffffffffffffffffffffffffffffffffffff1673ffffffffffffffffffffffffffffffffffffffff1673ffffffffffffffffffffffffffffffffffffffff1681526020016001820160009054906101000a900473ffffffffffffffffffffffffffffffffffffffff1673ffffffffffffffffffffffffffffffffffffffff1673ffffffffffffffffffffffffffffffffffffffff1681526020016002820160009054906101000a900473ffffffffffffffffffffffffffffffffffffffff1673ffffffffffffffffffffffffffffffffffffffff1673ffffffffffffffffffffffffffffffffffffffff1681526020016003820154815260200160048201548152602001600582015481526020016006820154815260200160078201548152505087878151811061210f5761210e613cac565b5b6020026020010181905250858061212590613cdb565b965050808061213390613cdb565b915050611f49565b505050808061214990613cdb565b915050611ed3565b5082935050505090565b818133600083905060008173ffffffffffffffffffffffffffffffffffffffff16636352211e856040518263ffffffff1660e01b815260040161219e9190612df2565b602060405180830381865afa1580156121bb573d6000803e3d6000fd5b505050506040513d601f19601f820116820180604052508101906121df919061327e565b90508073ffffffffffffffffffffffffffffffffffffffff168373ffffffffffffffffffffffffffffffffffffffff1614612246576040517f30cd747100000000000000000000000000000000000000000000000000000000815260040160405180910390fd5b86866000600460008473ffffffffffffffffffffffffffffffffffffffff1673ffffffffffffffffffffffffffffffffffffffff1681526020019081526020016000206000838152602001908152602001600020604051806040016040529081600082015481526020016001820160009054906101000a900473ffffffffffffffffffffffffffffffffffffffff1673ffffffffffffffffffffffffffffffffffffffff1673ffffffffffffffffffffffffffffffffffffffff1681525050905060008160000151116123525782826040517f6831488c00000000000000000000000000000000000000000000000000000000815260040161234992919061390b565b60405180910390fd5b600460008b73ffffffffffffffffffffffffffffffffffffffff1673ffffffffffffffffffffffffffffffffffffffff16815260200190815260200160002060008a81526020019081526020016000206000808201600090556001820160006101000a81549073ffffffffffffffffffffffffffffffffffffffff02191690555050888a73ffffffffffffffffffffffffffffffffffffffff163373ffffffffffffffffffffffffffffffffffffffff167f9ba1a3cb55ce8d63d072a886f94d2a744f50cddf82128e897d0661f5ec62315860405160405180910390a450505050505050505050565b6000600354905090565b6000806000905060008373ffffffffffffffffffffffffffffffffffffffff166301ffc9a77fad092b5c000000000000000000000000000000000000000000000000000000006040518263ffffffff1660e01b81526004016124a79190613d5e565b602060405180830381865afa9250505080156124e157506040513d601f19601f820116820180604052508101906124de9190613da5565b60015b6124f0576000925050506125a9565b809250508373ffffffffffffffffffffffffffffffffffffffff166301ffc9a77f80ac58cd000000000000000000000000000000000000000000000000000000006040518263ffffffff1660e01b815260040161254d9190613d5e565b602060405180830381865afa92505050801561258757506040513d601f19601f820116820180604052508101906125849190613da5565b60015b612596576000925050506125a9565b809150508180156125a45750805b925050505b919050565b82826000600460008473ffffffffffffffffffffffffffffffffffffffff1673ffffffffffffffffffffffffffffffffffffffff1681526020019081526020016000206000838152602001908152602001600020604051806040016040529081600082015481526020016001820160009054906101000a900473ffffffffffffffffffffffffffffffffffffffff1673ffffffffffffffffffffffffffffffffffffffff1673ffffffffffffffffffffffffffffffffffffffff1681525050905060008160000151116126ba5782826040517f6831488c0000000000000000000000000000000000000000000000000000000081526004016126b192919061390b565b60405180910390fd5b6126c26128ba565b858533600083905060008173ffffffffffffffffffffffffffffffffffffffff16636352211e856040518263ffffffff1660e01b81526004016127059190612df2565b602060405180830381865afa158015612722573d6000803e3d6000fd5b505050506040513d601f19601f82011682018060405250810190612746919061327e565b90508073ffffffffffffffffffffffffffffffffffffffff168373ffffffffffffffffffffffffffffffffffffffff16146127ad576040517f30cd747100000000000000000000000000000000000000000000000000000000815260040160405180910390fd5b600089116127e7576040517fe1abbfc500000000000000000000000000000000000000000000000000000000815260040160405180910390fd5b88600460008d73ffffffffffffffffffffffffffffffffffffffff1673ffffffffffffffffffffffffffffffffffffffff16815260200190815260200160002060008c815260200190815260200160002060000181905550898b73ffffffffffffffffffffffffffffffffffffffff163373ffffffffffffffffffffffffffffffffffffffff167fd547e933094f12a9159076970143ebe73234e64480317844b0dcb36117116de48c60405161289d9190612df2565b60405180910390a450505050506128b2612969565b505050505050565b6002600054036128ff576040517f08c379a00000000000000000000000000000000000000000000000000000000081526004016128f690613e1e565b60405180910390fd5b6002600081905550565b6001816000016000828254019250508190555050565b6000612931836000018360001b612a7e565b905092915050565b6000612961836000018373ffffffffffffffffffffffffffffffffffffffff1660001b612a7e565b905092915050565b6001600081905550565b6000612985836000018360001b612aee565b905092915050565b600061299b82600001612c02565b9050919050565b60006129ca836000018373ffffffffffffffffffffffffffffffffffffffff1660001b612aee565b905092915050565b60008160000154905060008111612a1e576040517f08c379a0000000000000000000000000000000000000000000000000000000008152600401612a1590613e8a565b60405180910390fd5b6001810382600001819055505050565b600081600001549050919050565b60606000612a4c83600001612c13565b905060608190508092505050919050565b60606000612a6d83600001612c13565b905060608190508092505050919050565b6000612a8a8383612c6f565b612ae3578260000182908060018154018082558091505060019003906000526020600020016000909190919091505582600001805490508360010160008481526020019081526020016000208190555060019050612ae8565b600090505b92915050565b60008083600101600084815260200190815260200160002054905060008114612bf6576000600182612b20919061371e565b9050600060018660000180549050612b38919061371e565b9050818114612ba7576000866000018281548110612b5957612b58613cac565b5b9060005260206000200154905080876000018481548110612b7d57612b7c613cac565b5b90600052602060002001819055508387600101600083815260200190815260200160002081905550505b85600001805480612bbb57612bba613eaa565b5b600190038181906000526020600020016000905590558560010160008681526020019081526020016000206000905560019350505050612bfc565b60009150505b92915050565b600081600001805490509050919050565b606081600001805480602002602001604051908101604052809291908181526020018280548015612c6357602002820191906000526020600020905b815481526020019060010190808311612c4f575b50505050509050919050565b600080836001016000848152602001908152602001600020541415905092915050565b604051806040016040528060008152602001600073ffffffffffffffffffffffffffffffffffffffff1681525090565b604051806101000160405280600073ffffffffffffffffffffffffffffffffffffffff168152602001600073ffffffffffffffffffffffffffffffffffffffff168152602001600073ffffffffffffffffffffffffffffffffffffffff16815260200160008152602001600081526020016000815260200160008152602001600081525090565b600080fd5b600073ffffffffffffffffffffffffffffffffffffffff82169050919050565b6000612d7982612d4e565b9050919050565b612d8981612d6e565b8114612d9457600080fd5b50565b600081359050612da681612d80565b92915050565b600060208284031215612dc257612dc1612d49565b5b6000612dd084828501612d97565b91505092915050565b6000819050919050565b612dec81612dd9565b82525050565b6000602082019050612e076000830184612de3565b92915050565b612e1681612dd9565b8114612e2157600080fd5b50565b600081359050612e3381612e0d565b92915050565b600080600080600060a08688031215612e5557612e54612d49565b5b6000612e6388828901612d97565b9550506020612e7488828901612e24565b9450506040612e8588828901612e24565b9350506060612e9688828901612e24565b9250506080612ea788828901612e24565b9150509295509295909350565b60008060408385031215612ecb57612eca612d49565b5b6000612ed985828601612d97565b9250506020612eea85828601612e24565b9150509250929050565b612efd81612dd9565b82525050565b612f0c81612d6e565b82525050565b604082016000820151612f286000850182612ef4565b506020820151612f3b6020850182612f03565b50505050565b6000604082019050612f566000830184612f12565b92915050565b600080600060608486031215612f7557612f74612d49565b5b6000612f8386828701612d97565b9350506020612f9486828701612e24565b9250506040612fa586828701612e24565b9150509250925092565b600067ffffffffffffffff82169050919050565b612fcc81612faf565b8114612fd757600080fd5b50565b600081359050612fe981612fc3565b92915050565b60008060006060848603121561300857613007612d49565b5b600061301686828701612d97565b935050602061302786828701612e24565b925050604061303886828701612fda565b9150509250925092565b600081519050919050565b600082825260208201905092915050565b6000819050602082019050919050565b610100820160008201516130856000850182612f03565b5060208201516130986020850182612f03565b5060408201516130ab6040850182612f03565b5060608201516130be6060850182612ef4565b5060808201516130d16080850182612ef4565b5060a08201516130e460a0850182612ef4565b5060c08201516130f760c0850182612ef4565b5060e082015161310a60e0850182612ef4565b50505050565b600061311c838361306e565b6101008301905092915050565b6000602082019050919050565b600061314182613042565b61314b818561304d565b93506131568361305e565b8060005b8381101561318757815161316e8882613110565b975061317983613129565b92505060018101905061315a565b5085935050505092915050565b600060208201905081810360008301526131ae8184613136565b905092915050565b60008115159050919050565b6131cb816131b6565b82525050565b60006020820190506131e660008301846131c2565b92915050565b600082825260208201905092915050565b7f436f6e7472616374206973206e6f7420616e2045524334393037000000000000600082015250565b6000613233601a836131ec565b915061323e826131fd565b602082019050919050565b6000602082019050818103600083015261326281613226565b9050919050565b60008151905061327881612d80565b92915050565b60006020828403121561329457613293612d49565b5b60006132a284828501613269565b91505092915050565b7f4e6f74206f776e6572206f66206e667400000000000000000000000000000000600082015250565b60006132e16010836131ec565b91506132ec826132ab565b602082019050919050565b60006020820190508181036000830152613310816132d4565b9050919050565b7f4e6f7420656e6f75676820657468657220666f72206c697374696e6720666565600082015250565b600061334d6020836131ec565b915061335882613317565b602082019050919050565b6000602082019050818103600083015261337c81613340565b9050919050565b7f52656e74616c2070726963652073686f756c642062652067726561746572207460008201527f68616e2030000000000000000000000000000000000000000000000000000000602082015250565b60006133df6025836131ec565b91506133ea82613383565b604082019050919050565b6000602082019050818103600083015261340e816133d2565b9050919050565b7f537461727420646174652063616e6e6f7420626520696e207468652070617374600082015250565b600061344b6020836131ec565b915061345682613415565b602082019050919050565b6000602082019050818103600083015261347a8161343e565b9050919050565b7f456e6420646174652063616e6e6f74206265206265666f72652074686520737460008201527f6172742064617465000000000000000000000000000000000000000000000000602082015250565b60006134dd6028836131ec565b91506134e882613481565b604082019050919050565b6000602082019050818103600083015261350c816134d0565b9050919050565b7f54686973204e46542068617320616c7265616479206265656e206c6973746564600082015250565b60006135496020836131ec565b915061355482613513565b602082019050919050565b600060208201905081810360008301526135788161353c565b9050919050565b6000819050919050565b6000819050919050565b60006135ae6135a96135a48461357f565b613589565b612dd9565b9050919050565b6135be81613593565b82525050565b600060a0820190506135d96000830188612de3565b6135e66020830187612de3565b6135f36040830186612de3565b6136006060830185612de3565b61360d60808301846135b5565b9695505050505050565b7f54686973204e4654206973206e6f74206c697374656400000000000000000000600082015250565b600061364d6016836131ec565b915061365882613617565b602082019050919050565b6000602082019050818103600083015261367c81613640565b9050919050565b7f4e6f7420617070726f76656420746f20756e6c697374204e4654000000000000600082015250565b60006136b9601a836131ec565b91506136c482613683565b602082019050919050565b600060208201905081810360008301526136e8816136ac565b9050919050565b7f4e487b7100000000000000000000000000000000000000000000000000000000600052601160045260246000fd5b600061372982612dd9565b915061373483612dd9565b925082820390508181111561374c5761374b6136ef565b5b92915050565b7f4e487b7100000000000000000000000000000000000000000000000000000000600052601260045260246000fd5b600061378c82612dd9565b915061379783612dd9565b9250826137a7576137a6613752565b5b828204905092915050565b60006137bd82612dd9565b91506137c883612dd9565b92508282019050808211156137e0576137df6136ef565b5b92915050565b60006137f182612dd9565b91506137fc83612dd9565b925082820261380a81612dd9565b91508282048414831517613821576138206136ef565b5b5092915050565b7f4e6f7420656e6f75676820657468657220746f20636f76657220726566756e64600082015250565b600061385e6020836131ec565b915061386982613828565b602082019050919050565b6000602082019050818103600083015261388d81613851565b9050919050565b61389d81612d6e565b82525050565b60006138be6138b96138b48461357f565b613589565b612faf565b9050919050565b6138ce816138a3565b82525050565b60006060820190506138e96000830186612de3565b6138f66020830185613894565b61390360408301846138c5565b949350505050565b60006040820190506139206000830185613894565b61392d6020830184612de3565b9392505050565b600081905092915050565b50565b600061394f600083613934565b915061395a8261393f565b600082019050919050565b600061397082613942565b9150819050919050565b7f5472616e73666572206661696c65640000000000000000000000000000000000600082015250565b60006139b0600f836131ec565b91506139bb8261397a565b602082019050919050565b600060208201905081810360008301526139df816139a3565b9050919050565b7f4e465420616c72656164792072656e7465640000000000000000000000000000600082015250565b6000613a1c6012836131ec565b9150613a27826139e6565b602082019050919050565b60006020820190508181036000830152613a4b81613a0f565b9050919050565b7f52656e74616c20706572696f642065786365656473206d61782064617465207260008201527f656e7461626c6500000000000000000000000000000000000000000000000000602082015250565b6000613aae6027836131ec565b9150613ab982613a52565b604082019050919050565b60006020820190508181036000830152613add81613aa1565b9050919050565b7f4e6f7420656e6f75676820657468657220746f20636f7665722072656e74616c60008201527f20706572696f6400000000000000000000000000000000000000000000000000602082015250565b6000613b406027836131ec565b9150613b4b82613ae4565b604082019050919050565b60006020820190508181036000830152613b6f81613b33565b9050919050565b613b7f81612faf565b82525050565b6000606082019050613b9a6000830186612de3565b613ba76020830185613894565b613bb46040830184613b76565b949350505050565b600060a082019050613bd16000830188612de3565b613bde6020830187612de3565b613beb6040830186612de3565b613bf86060830185613b76565b613c056080830184612de3565b9695505050505050565b6000606082019050613c246000830186613894565b613c316020830185612de3565b613c3e6040830184612de3565b949350505050565b6000606082019050613c5b6000830186613894565b613c686020830185613894565b613c756040830184612de3565b949350505050565b7f4e487b7100000000000000000000000000000000000000000000000000000000600052604160045260246000fd5b7f4e487b7100000000000000000000000000000000000000000000000000000000600052603260045260246000fd5b6000613ce682612dd9565b91507fffffffffffffffffffffffffffffffffffffffffffffffffffffffffffffffff8203613d1857613d176136ef565b5b600182019050919050565b60007fffffffff0000000000000000000000000000000000000000000000000000000082169050919050565b613d5881613d23565b82525050565b6000602082019050613d736000830184613d4f565b92915050565b613d82816131b6565b8114613d8d57600080fd5b50565b600081519050613d9f81613d79565b92915050565b600060208284031215613dbb57613dba612d49565b5b6000613dc984828501613d90565b91505092915050565b7f5265656e7472616e637947756172643a207265656e7472616e742063616c6c00600082015250565b6000613e08601f836131ec565b9150613e1382613dd2565b602082019050919050565b60006020820190508181036000830152613e3781613dfb565b9050919050565b7f436f756e7465723a2064656372656d656e74206f766572666c6f770000000000600082015250565b6000613e74601b836131ec565b9150613e7f82613e3e565b602082019050919050565b60006020820190508181036000830152613ea381613e67565b9050919050565b7f4e487b7100000000000000000000000000000000000000000000000000000000600052603160045260246000fdfea26469706673582212200d9b4a5163e5710d589a167d80a8e926644de987c7e60d4122f2f7fbca91d49064736f6c63430008110033",
  "linkReferences": {},
  "deployedLinkReferences": {}
}